{
  "contractName": "Certificate",
  "abi": [
    {
      "constant": true,
      "inputs": [],
      "name": "metadata",
      "outputs": [
        {
          "name": "",
          "type": "string"
        }
      ],
      "payable": false,
      "stateMutability": "view",
      "type": "function"
    },
    {
      "constant": true,
      "inputs": [
        {
          "name": "",
          "type": "address"
        }
      ],
      "name": "confirmedBy",
      "outputs": [
        {
          "name": "",
          "type": "bool"
        }
      ],
      "payable": false,
      "stateMutability": "view",
      "type": "function"
    },
    {
      "constant": true,
      "inputs": [],
      "name": "description",
      "outputs": [
        {
          "name": "",
          "type": "string"
        }
      ],
      "payable": false,
      "stateMutability": "view",
      "type": "function"
    },
    {
      "constant": true,
      "inputs": [],
      "name": "owner",
      "outputs": [
        {
          "name": "",
          "type": "address"
        }
      ],
      "payable": false,
      "stateMutability": "view",
      "type": "function"
    },
    {
      "constant": true,
      "inputs": [
        {
          "name": "",
          "type": "uint256"
        }
      ],
      "name": "confirmations",
      "outputs": [
        {
          "name": "",
          "type": "address"
        }
      ],
      "payable": false,
      "stateMutability": "view",
      "type": "function"
    },
    {
      "inputs": [
        {
          "name": "_owner",
          "type": "address"
        },
        {
          "name": "_description",
          "type": "string"
        }
      ],
      "payable": false,
      "stateMutability": "nonpayable",
      "type": "constructor"
    },
    {
      "constant": false,
      "inputs": [
        {
          "name": "_metadata",
          "type": "string"
        }
      ],
      "name": "changeMetadata",
      "outputs": [
        {
          "name": "",
          "type": "bool"
        }
      ],
      "payable": false,
      "stateMutability": "nonpayable",
      "type": "function"
    },
    {
      "constant": false,
      "inputs": [],
      "name": "confirm",
      "outputs": [
        {
          "name": "",
          "type": "bool"
        }
      ],
      "payable": false,
      "stateMutability": "nonpayable",
      "type": "function"
    },
    {
      "constant": false,
      "inputs": [
        {
          "name": "_oracle",
          "type": "address"
        },
        {
          "name": "sig",
          "type": "bytes"
        }
      ],
      "name": "confirmFrom",
      "outputs": [
        {
          "name": "",
          "type": "bool"
        }
      ],
      "payable": false,
      "stateMutability": "nonpayable",
      "type": "function"
    },
    {
      "constant": true,
      "inputs": [
        {
          "name": "_oracle",
          "type": "address"
        }
      ],
      "name": "isConfirmedBy",
      "outputs": [
        {
          "name": "",
          "type": "bool"
        }
      ],
      "payable": false,
      "stateMutability": "view",
      "type": "function"
    },
    {
      "constant": true,
      "inputs": [],
      "name": "getNumberOfConfirmations",
      "outputs": [
        {
          "name": "count",
          "type": "uint256"
        }
      ],
      "payable": false,
      "stateMutability": "view",
      "type": "function"
    },
    {
      "constant": true,
      "inputs": [
        {
          "name": "_addr",
          "type": "address"
        }
      ],
      "name": "checkOwner",
      "outputs": [
        {
          "name": "",
          "type": "bool"
        }
      ],
      "payable": false,
      "stateMutability": "view",
      "type": "function"
    }
  ],
  "bytecode": "0x608060405234801561001057600080fd5b50604051610d41380380610d41833981018060405281019080805190602001909291908051820192919050505081600260006101000a81548173ffffffffffffffffffffffffffffffffffffffff021916908373ffffffffffffffffffffffffffffffffffffffff160217905550806000908051906020019061009492919061009c565b505050610141565b828054600181600116156101000203166002900490600052602060002090601f016020900481019282601f106100dd57805160ff191683800117855561010b565b8280016001018555821561010b579182015b8281111561010a5782518255916020019190600101906100ef565b5b509050610118919061011c565b5090565b61013e91905b8082111561013a576000816000905550600101610122565b5090565b90565b610bf1806101506000396000f3006080604052600436106100af576000357c0100000000000000000000000000000000000000000000000000000000900463ffffffff1680630c683982146100b4578063392f37e91461010f5780635070bd1f1461019f5780637022b58e146101fa5780637284e416146102295780638da5cb5b146102b957806399f44a3214610310578063a75dd132146103b1578063b9774f7b146103dc578063d9b6225e14610449578063e0e3671c1461049c575b600080fd5b3480156100c057600080fd5b506100f5600480360381019080803573ffffffffffffffffffffffffffffffffffffffff1690602001909291905050506104f7565b604051808215151515815260200191505060405180910390f35b34801561011b57600080fd5b5061012461054d565b6040518080602001828103825283818151815260200191508051906020019080838360005b83811015610164578082015181840152602081019050610149565b50505050905090810190601f1680156101915780820380516001836020036101000a031916815260200191505b509250505060405180910390f35b3480156101ab57600080fd5b506101e0600480360381019080803573ffffffffffffffffffffffffffffffffffffffff1690602001909291905050506105eb565b604051808215151515815260200191505060405180910390f35b34801561020657600080fd5b5061020f61060b565b604051808215151515815260200191505060405180910390f35b34801561023557600080fd5b5061023e61061d565b6040518080602001828103825283818151815260200191508051906020019080838360005b8381101561027e578082015181840152602081019050610263565b50505050905090810190601f1680156102ab5780820380516001836020036101000a031916815260200191505b509250505060405180910390f35b3480156102c557600080fd5b506102ce6106bb565b604051808273ffffffffffffffffffffffffffffffffffffffff1673ffffffffffffffffffffffffffffffffffffffff16815260200191505060405180910390f35b34801561031c57600080fd5b50610397600480360381019080803573ffffffffffffffffffffffffffffffffffffffff169060200190929190803590602001908201803590602001908080601f01602080910402602001604051908101604052809392919081815260200183838082843782019150505050505091929192905050506106e1565b604051808215151515815260200191505060405180910390f35b3480156103bd57600080fd5b506103c66107e2565b6040518082815260200191505060405180910390f35b3480156103e857600080fd5b50610407600480360381019080803590602001909291905050506107ef565b604051808273ffffffffffffffffffffffffffffffffffffffff1673ffffffffffffffffffffffffffffffffffffffff16815260200191505060405180910390f35b34801561045557600080fd5b5061048260048036038101908080359060200190820180359060200191909192939192939050505061082d565b604051808215151515815260200191505060405180910390f35b3480156104a857600080fd5b506104dd600480360381019080803573ffffffffffffffffffffffffffffffffffffffff16906020019092919050505061085f565b604051808215151515815260200191505060405180910390f35b6000600360008373ffffffffffffffffffffffffffffffffffffffff1673ffffffffffffffffffffffffffffffffffffffff16815260200190815260200160002060009054906101000a900460ff169050919050565b60018054600181600116156101000203166002900480601f0160208091040260200160405190810160405280929190818152602001828054600181600116156101000203166002900480156105e35780601f106105b8576101008083540402835291602001916105e3565b820191906000526020600020905b8154815290600101906020018083116105c657829003601f168201915b505050505081565b60036020528060005260406000206000915054906101000a900460ff1681565b6000610616336108b9565b6001905090565b60008054600181600116156101000203166002900480601f0160208091040260200160405190810160405280929190818152602001828054600181600116156101000203166002900480156106b35780601f10610688576101008083540402835291602001916106b3565b820191906000526020600020905b81548152906001019060200180831161069657829003601f168201915b505050505081565b600260009054906101000a900473ffffffffffffffffffffffffffffffffffffffff1681565b6000803373ffffffffffffffffffffffffffffffffffffffff168473ffffffffffffffffffffffffffffffffffffffff161415151561071f57600080fd5b61077c30604051808273ffffffffffffffffffffffffffffffffffffffff1673ffffffffffffffffffffffffffffffffffffffff166c010000000000000000000000000281526014019150506040518091039020600019166109d9565b90508373ffffffffffffffffffffffffffffffffffffffff166107ac848360001916610a2890919063ffffffff16565b73ffffffffffffffffffffffffffffffffffffffff161415156107ce57600080fd5b6107d7846108b9565b600191505092915050565b6000600480549050905090565b6004818154811015156107fe57fe5b906000526020600020016000915054906101000a900473ffffffffffffffffffffffffffffffffffffffff1681565b60006108383361085f565b151561084357600080fd5b828260019190610854929190610b20565b506001905092915050565b60008173ffffffffffffffffffffffffffffffffffffffff16600260009054906101000a900473ffffffffffffffffffffffffffffffffffffffff1673ffffffffffffffffffffffffffffffffffffffff16149050919050565b60001515600360008373ffffffffffffffffffffffffffffffffffffffff1673ffffffffffffffffffffffffffffffffffffffff16815260200190815260200160002060009054906101000a900460ff16151514151561091857600080fd5b6001600360008373ffffffffffffffffffffffffffffffffffffffff1673ffffffffffffffffffffffffffffffffffffffff16815260200190815260200160002060006101000a81548160ff02191690831515021790555060048190806001815401808255809150509060018203906000526020600020016000909192909190916101000a81548173ffffffffffffffffffffffffffffffffffffffff021916908373ffffffffffffffffffffffffffffffffffffffff1602179055505050565b60008160405180807f19457468657265756d205369676e6564204d6573736167653a0a333200000000815250601c01826000191660001916815260200191505060405180910390209050919050565b60008060008060418551141515610a425760009350610b17565b6020850151925060408501519150606085015160001a9050601b8160ff161015610a6d57601b810190505b601b8160ff1614158015610a855750601c8160ff1614155b15610a935760009350610b17565b600186828585604051600081526020016040526040518085600019166000191681526020018460ff1660ff1681526020018360001916600019168152602001826000191660001916815260200194505050505060206040516020810390808403906000865af1158015610b0a573d6000803e3d6000fd5b5050506020604051035193505b50505092915050565b828054600181600116156101000203166002900490600052602060002090601f016020900481019282601f10610b6157803560ff1916838001178555610b8f565b82800160010185558215610b8f579182015b82811115610b8e578235825591602001919060010190610b73565b5b509050610b9c9190610ba0565b5090565b610bc291905b80821115610bbe576000816000905550600101610ba6565b5090565b905600a165627a7a723058202dabc11e90ff4a418e897d32dc4c98ff60d9e370702e5427d6b8d20cf134ad270029",
  "source": "pragma solidity ^0.4.23;\n\nimport \"openzeppelin-solidity/contracts/ECRecovery.sol\";\n\ncontract Certificate {\n    using ECRecovery for bytes32;\n\n    string public description;\n    string public metadata;\n\n    address public owner;\n\n    mapping (address => bool) public confirmedBy;\n\n    address[] public confirmations;\n\n    constructor(address _owner, string _description) public {\n        owner = _owner;\n        description = _description;\n    }\n\n    function changeMetadata(string _metadata)\n        external returns(bool)\n    {\n        require(checkOwner(msg.sender));\n\n        metadata = _metadata;\n\n        return true;\n    }\n\n    function confirm()\n        external returns(bool)\n    {\n        confirmInternal(msg.sender);\n\n        return true;\n    }\n\n    function confirmFrom(address _oracle, bytes sig)\n        public returns(bool)\n    {\n        require(_oracle != msg.sender);\n\n        bytes32 message = sha3(address(this)).toEthSignedMessageHash();\n\n        require(message.recover(sig) == _oracle);\n\n        confirmInternal(_oracle);\n\n        return true;\n    }\n\n    function confirmInternal(address _oracle)\n        internal\n    {\n        require(confirmedBy[_oracle] == false);\n\n        confirmedBy[_oracle] = true;\n        confirmations.push(_oracle);\n    }\n\n    function isConfirmedBy(address _oracle)\n        public constant returns (bool)\n    {\n        return confirmedBy[_oracle];\n    }\n\n    function getNumberOfConfirmations() public constant returns(uint count) {\n        return confirmations.length;\n    }\n\n    function checkOwner(address _addr)\n        public constant returns (bool)\n    {\n        return owner == _addr;\n    }\n}\n",
  "sourcePath": "/Users/nmurzin/Projects/proof-of-skill/contracts/Certificate.sol",
  "compiler": {
    "name": "solc",
    "version": "0.4.23+commit.124ca40d.Emscripten.clang"
  },
  "schemaVersion": "2.0.0",
  "updatedAt": "2018-05-20T14:59:51.897Z"
}